:020000040000FA
:0600000049EF02F01200BE
:020006000000F8
:08000800060EF66E000EF76E05
:10001000000EF86E04010900F550866F0900F550D6
:10002000876F03E1866701D03DD00900F550816FED
:100030000900F550826F0900F550836F090009002F
:10004000F550E96E0900F550EA6E09000900090053
:10005000F550846F0900F550856F09000900F6CF4F
:1000600088F4F7CF89F4F8CF8AF481C4F6FF82C40C
:10007000F7FF83C4F8FF0401845302E1855307E0CE
:100080000900F550EE6E8407F8E28507F9D788C4B9
:10009000F6FF89C4F7FF8AC4F8FF04018607000E43
:0600A000875BBFD71200D0
:0A00A600D9CFE6FFE1CFD9FF0F0E1E
:1000B000831695169594959295908C948C928C902D
:1000C000ADEC00F0300E33D8050EE66EFCEC01F01E
:1000D000E552300E2CD8010EE66EFCEC01F0E55234
:1000E000320E25D829D8FEE127D8FEE1FE0EDBCF5F
:1000F000E6FF52EC01F0E5521FD8FEE1080E17D8DA
:100100001BD8FEE10F0E13D817D8FEE1010E0FD851
:1001100013D8FEE1040E0BD80FD8FEE1800EE66E78
:10012000E7EC00F0E552E552E7CFD9FF1200E66EAA
:1001300052EC01F0E552120013EC02F0000912003B
:1001400000000000000000000000000000000000AF
:10015000000000000000000012000F0EE66E29EC07
:1001600002F0E5521200050EE66E29EC02F0E552AF
:100170001200280EE66E53EC00F0E55213EC02F08C
:100180000009FCE1280E1ED813EC02F00009FCE186
:100190000F0E18D813EC02F00009FCE1060EE2EF96
:1001A00000F0E7DF13EC02F00009FCE1430EE66E1D
:1001B000E7EC00F0E552AE0EE66E040EE66EB9EC2A
:0E01C00001F0FFD7E66E52EC01F0E55212009E
:0201CE00D9CF87
:1001D000E6FFE1CFD9FF0F0E95168316FE0EDB501A
:1001E0008009F00B83128C948C920ED80F0E83161C
:1001F000FE0EDB38F00BF00B831206D8F00E9512D2
:10020000E552E7CFD9FF1200A0EC00F08C80A0EC03
:0602100000F08C901200CA
:0A021600D9CFE6FFE1CFD9FF0F0EAC
:1002200095168316FE0EDB504009F00B83128C945A
:100230008C920ED80F0E8316FE0EDB38F00BF00BEF
:10024000831206D8F00E9512E552E7CFD9FF1200BF
:0E025000A0EC00F08C80A0EC00F08C9012006E
:02025E00D9CFF6
:10026000E6FFE1CFD9FF0F0E95168316FE0EDB5089
:10027000F00B83128C828C940ED80F0E8316FE0E18
:10028000DB38F00BF00B831206D8F00E9512E55216
:10029000E7CFD9FF1200A0EC00F08C80A0EC00F0BA
:0402A0008C9012002C
:0C02A400D9CFE6FFE1CFD9FF0F0E951671
:1002B0008316FE0EDB50F00B83128C948C920ED8BA
:1002C0000F0E8316FE0EDB38F00BF00B831206D8F0
:1002D000F00E9512E552E7CFD9FF1200A0EC00F026
:0A02E0008C80A0EC00F08C9012005E
:0602EA00D9CFE6FFE1CFD1
:1002F000D9FFE6528C848C82A0EC00F08C80A0ECBC
:1003000000F0F00E8314DF6E8C90A0EC00F08C8077
:10031000A0EC00F083380F0B0F0BDF128C908C9247
:0E0320008C94DF50E552E552E7CFD9FF120072
:02032E00D9CF25
:10033000E6FFE1CFD9FFE6528C848C92A0EC00F06E
:100340008C80A0EC00F0F00E8314DF6E8C90A0EC9B
:1003500000F08C80A0EC00F083380F0B0F0BDF1245
:100360008C908C947F0EDF14E552E552E7CFD9FFD5
:02037000120079
:0E037200D9CFE6FFE1CFD9FF14D80FE013EC8E
:1003800002F00009FCE10ED8E66E2FEC01F0E55218
:10039000FD0EDB2AFE0EF1E3DB2AEFD7E552E7CFB5
:1003A000D9FF1200FD0EDBCFF6FFFE0EDBCFF7FF0D
:0603B0000800F5501200E8
:0A03B600D9CFE6FFE1CFD9FF14D83C
:1003C0000FE013EC02F00009FCE10ED8E66E2FEC12
:1003D00001F0E552FD0EDB2AFE0EF1E3DB2AEFD73A
:1003E000E552E7CFD9FF1200FD0EDBCFE9FFFE0E8D
:0803F000DBCFEAFFEF50120021
:0803F800FF0EE350036EEF0E4F
:1004000001D0F30EE76EE72E03EF02F00C0E026E42
:10041000E76AE72E09EF02F0022E08EF02F0032E42
:0604200001EF02F01200E2
:0A0426008C848C92A0EC00F08C8016
:10043000A0EC00F083AE02D003D8010C01D8000C70
:100440008C90A0EC00F08C80A0EC00F08C908C9450
:02045000120098
:0E045200FF0EE350036E480E01D04C0EE76E15
:10046000E72EFED7E76AE72EFED7032EF7D7000068
:02047000120078
:0E047200000EF36E00EE00F0060E01D8120030
:10048000EA6002D0EE6AFCD7F350E9601200EE6A2F
:02049000FCD797
:0E04920013EE81F023EE81F0F86A019C04EC79
:0E04A00000F05DEC02F0D1EC00F0FBD7120092
:0204AE0048659F
:0A04B0006C6C6F20576F726C6400D3
:0204BA0012002E
:020000040030CA
:0100010022DC
:010003000EEE
:010006008178
:00000001FF
