:0600000000F088EF04F09F
:10060000006C6173742120584C43442C0074686161
:090610006E6B732049616E00005D
:10061A00FFFF036E0F0E83160F0E95169594959293
:10062A0095908C948C928C9075EC04F0300E33EC8F
:10063A0004F00F0E026E9E0EFFFFE82EFDD7022E6B
:10064A00FBD7300E33EC04F00F0E026E9E0EFFFF46
:10065A00E82EFDD7022EFBD7320E33EC04F0FFFF53
:10066A0054EC04F00009D8A4FAD7FFFF54EC04F0C4
:10067A000009D8A4FAD7035033EC04F0FFFF54EC76
:10068A0004F00009D8A4FAD7080E33EC04F0FFFFEF
:10069A0054EC04F00009D8A4FAD70F0E33EC04F096
:1006AA00FFFF54EC04F00009D8A4FAD7010E33EC8A
:1006BA0004F0FFFF54EC04F00009D8A4FAD7040EA2
:1006CA0033EC04F0FFFF54EC04F00009D8A4FAD785
:1006DA00800ECFEC03F01200FFFFFFFF620ED36E15
:1006EA000F0EC16E000E926E000E936E000E946E87
:1006FA00000E8A6E080E0DEC03F0FFFF54EC04F0B6
:10070A000009D8A4FAD7060E33EC04F0FFFF54EC24
:10071A0004F00009D8A4FAD7410E12EC04F0FFFF46
:10072A0054EC04F00009D8A4FAD7740E12EC04F0C1
:10073A00FFFF54EC04F00009D8A4FAD7200E12ECFB
:10074A0004F0FFFF54EC04F00009D8A4FAD7010E14
:10075A00026E060E036EF1EC03F0FFFF54EC04F098
:10076A000009D8A4FAD7C00E33EC04F0FFFF54EC0A
:10077A0004F00009D8A4FAD70D0E026E060E036E15
:10078A00F1EC03F0FFFF54EC04F00009D8A4FAD707
:10079A00FFFFFED7FFFF016E0F0E95160F0E831691
:1007AA0001508009F00B83128C948C9280EC04F037
:1007BA008C8080EC04F08C900F0E83160138F00BBD
:1007CA00F00B831280EC04F08C8080EC04F08C90A7
:1007DA00F00E95121200FFFFFFFF11D0FFFF54EC3D
:1007EA0004F00009D8A4FAD702C0F6FF03C0F7FF45
:1007FA000800FFFFF55012EC04F0024A032AFFFF3B
:10080A0002C0F6FF03C0F7FF0800FFFFF55000091A
:10081A00D8B41200FFFFE2D7FFFFFFFF016E0F0EF1
:10082A0095160F0E83160150F00B83128C828C944E
:10083A0080EC04F08C8080EC04F08C900F0E831610
:10084A000138F00BF00B831280EC04F08C8080EC02
:10085A0004F08C90F00E95121200FFFFFFFF016E5C
:10086A000F0E95160F0E83160150F00B83128C94FF
:10087A008C9280EC04F08C8080EC04F08C900F0E4B
:10088A0083160138F00BF00B831280EC04F08C8095
:10089A0080EC04F08C90F00E95121200FFFFFFFF1F
:1008AA008C848C9280EC04F08C8080EC04F083AE13
:1008BA000AD08C9080EC04F08C8080EC04F08C9050
:1008CA008C94010E0AD0FFFF8C9080EC04F08C808F
:1008DA0080EC04F08C908C94000EFFFF1200FFFF56
:1008EA00FFFF0F0E016E9E0EFFFFE82EFDD7012EB1
:1008FA00FBD71200FFFFFFFF040EFFFFE82EFDD714
:10090A0000D01200FFFF000EF86E060EF76E00010F
:06091A0072EF03F0FFFF85
:020000040020DA
:08000000FFFFFFFFFFFFFFFF00
:020000040030CA
:0E000000FF220F0EFF0181FF0FC00FE00F4027
:00000001FF
